{
  "contractName": "CanTrack",
  "abi": [
    {
      "constant": true,
      "inputs": [],
      "name": "owner",
      "outputs": [
        {
          "name": "",
          "type": "address"
        }
      ],
      "payable": false,
      "stateMutability": "view",
      "type": "function"
    },
    {
      "constant": false,
      "inputs": [
        {
          "name": "newOwner",
          "type": "address"
        }
      ],
      "name": "transferOwnership",
      "outputs": [],
      "payable": false,
      "stateMutability": "nonpayable",
      "type": "function"
    },
    {
      "inputs": [],
      "payable": false,
      "stateMutability": "nonpayable",
      "type": "constructor"
    },
    {
      "anonymous": false,
      "inputs": [
        {
          "indexed": false,
          "name": "timestamp",
          "type": "uint256"
        },
        {
          "indexed": false,
          "name": "code",
          "type": "string"
        }
      ],
      "name": "ShortLink",
      "type": "event"
    },
    {
      "anonymous": false,
      "inputs": [
        {
          "indexed": true,
          "name": "previousOwner",
          "type": "address"
        },
        {
          "indexed": true,
          "name": "newOwner",
          "type": "address"
        }
      ],
      "name": "OwnershipTransferred",
      "type": "event"
    },
    {
      "constant": false,
      "inputs": [
        {
          "name": "_url",
          "type": "string"
        }
      ],
      "name": "setURL",
      "outputs": [],
      "payable": false,
      "stateMutability": "nonpayable",
      "type": "function"
    },
    {
      "constant": true,
      "inputs": [],
      "name": "getURL",
      "outputs": [
        {
          "name": "",
          "type": "string"
        }
      ],
      "payable": false,
      "stateMutability": "view",
      "type": "function"
    },
    {
      "constant": false,
      "inputs": [
        {
          "name": "_key",
          "type": "string"
        },
        {
          "name": "_value",
          "type": "uint256"
        }
      ],
      "name": "setConfig",
      "outputs": [],
      "payable": false,
      "stateMutability": "nonpayable",
      "type": "function"
    },
    {
      "constant": true,
      "inputs": [
        {
          "name": "_key",
          "type": "string"
        }
      ],
      "name": "getConfig",
      "outputs": [
        {
          "name": "_value",
          "type": "uint256"
        }
      ],
      "payable": false,
      "stateMutability": "view",
      "type": "function"
    },
    {
      "constant": false,
      "inputs": [
        {
          "name": "json",
          "type": "string"
        }
      ],
      "name": "addData",
      "outputs": [],
      "payable": false,
      "stateMutability": "nonpayable",
      "type": "function"
    },
    {
      "constant": true,
      "inputs": [
        {
          "name": "code",
          "type": "string"
        }
      ],
      "name": "getTimestamp",
      "outputs": [
        {
          "name": "",
          "type": "uint256"
        }
      ],
      "payable": false,
      "stateMutability": "view",
      "type": "function"
    },
    {
      "constant": true,
      "inputs": [
        {
          "name": "code",
          "type": "string"
        }
      ],
      "name": "getData",
      "outputs": [
        {
          "name": "",
          "type": "string"
        }
      ],
      "payable": false,
      "stateMutability": "view",
      "type": "function"
    },
    {
      "constant": true,
      "inputs": [
        {
          "name": "code",
          "type": "string"
        }
      ],
      "name": "getSender",
      "outputs": [
        {
          "name": "",
          "type": "address"
        }
      ],
      "payable": false,
      "stateMutability": "view",
      "type": "function"
    }
  ],
  "bytecode": "0x606060405234156200001057600080fd5b336000806101000a81548173ffffffffffffffffffffffffffffffffffffffff021916908373ffffffffffffffffffffffffffffffffffffffff160217905550620000a86040805190810160405280600b81526020017f626c6f636b6f6666736574000000000000000000000000000000000000000000815250620f42406200012964010000000002620006f2176401000000009004565b62000123606060405190810160405280602681526020017f68747470733a2f2f63616e79612d747261636b65722e6669726562617365617081526020017f702e636f6d2f0000000000000000000000000000000000000000000000000000815250620001fb64010000000002620007c1176401000000009004565b62000322565b6000809054906101000a900473ffffffffffffffffffffffffffffffffffffffff1673ffffffffffffffffffffffffffffffffffffffff163373ffffffffffffffffffffffffffffffffffffffff161415156200018557600080fd5b806002836040518082805190602001908083835b602083101515620001c0578051825260208201915060208101905060208303925062000199565b6001836020036101000a0380198251168184511680821785525050505050509050019150509081526020016040518091039020819055505050565b6000809054906101000a900473ffffffffffffffffffffffffffffffffffffffff1673ffffffffffffffffffffffffffffffffffffffff163373ffffffffffffffffffffffffffffffffffffffff161415156200025757600080fd5b80600190805190602001906200026f92919062000273565b5050565b828054600181600116156101000203166002900490600052602060002090601f016020900481019282601f10620002b657805160ff1916838001178555620002e7565b82800160010185558215620002e7579182015b82811115620002e6578251825591602001919060010190620002c9565b5b509050620002f69190620002fa565b5090565b6200031f91905b808211156200031b57600081600090555060010162000301565b5090565b90565b6113e380620003326000396000f3006060604052600436106100a4576000357c0100000000000000000000000000000000000000000000000000000000900463ffffffff1680631b20492f146100a957806332e5e5951461014657806338bcdc1c146101b75780633e8f5b901461024557806377343408146102ab5780638da5cb5b14610308578063ae55c8881461035d578063b44bd51d14610433578063d4a2498d146104a4578063f2fde38b14610501575b600080fd5b34156100b457600080fd5b610104600480803590602001908201803590602001908080601f0160208091040260200160405190810160405280939291908181526020018383808284378201915050505050509190505061053a565b604051808273ffffffffffffffffffffffffffffffffffffffff1673ffffffffffffffffffffffffffffffffffffffff16815260200191505060405180910390f35b341561015157600080fd5b6101a1600480803590602001908201803590602001908080601f016020809104026020016040519081016040528093929190818152602001838380828437820191505050505050919050506105d2565b6040518082815260200191505060405180910390f35b34156101c257600080fd5b6101ca61064a565b6040518080602001828103825283818151815260200191508051906020019080838360005b8381101561020a5780820151818401526020810190506101ef565b50505050905090810190601f1680156102375780820380516001836020036101000a031916815260200191505b509250505060405180910390f35b341561025057600080fd5b6102a9600480803590602001908201803590602001908080601f016020809104026020016040519081016040528093929190818152602001838380828437820191505050505050919080359060200190919050506106f2565b005b34156102b657600080fd5b610306600480803590602001908201803590602001908080601f016020809104026020016040519081016040528093929190818152602001838380828437820191505050505050919050506107c1565b005b341561031357600080fd5b61031b610836565b604051808273ffffffffffffffffffffffffffffffffffffffff1673ffffffffffffffffffffffffffffffffffffffff16815260200191505060405180910390f35b341561036857600080fd5b6103b8600480803590602001908201803590602001908080601f0160208091040260200160405190810160405280939291908181526020018383808284378201915050505050509190505061085b565b6040518080602001828103825283818151815260200191508051906020019080838360005b838110156103f85780820151818401526020810190506103dd565b50505050905090810190601f1680156104255780820380516001836020036101000a031916815260200191505b509250505060405180910390f35b341561043e57600080fd5b61048e600480803590602001908201803590602001908080601f01602080910402602001604051908101604052809392919081815260200183838082843782019150505050505091905050610971565b6040518082815260200191505060405180910390f35b34156104af57600080fd5b6104ff600480803590602001908201803590602001908080601f016020809104026020016040519081016040528093929190818152602001838380828437820191505050505050919050506109e6565b005b341561050c57600080fd5b610538600480803573ffffffffffffffffffffffffffffffffffffffff16906020019091905050610bae565b005b60006003826040518082805190602001908083835b602083101515610574578051825260208201915060208101905060208303925061054f565b6001836020036101000a038019825116818451168082178552505050505050905001915050908152602001604051809103902060020160009054906101000a900473ffffffffffffffffffffffffffffffffffffffff169050919050565b60006003826040518082805190602001908083835b60208310151561060c57805182526020820191506020810190506020830392506105e7565b6001836020036101000a0380198251168184511680821785525050505050509050019150509081526020016040518091039020600001549050919050565b61065261126a565b60018054600181600116156101000203166002900480601f0160208091040260200160405190810160405280929190818152602001828054600181600116156101000203166002900480156106e85780601f106106bd576101008083540402835291602001916106e8565b820191906000526020600020905b8154815290600101906020018083116106cb57829003601f168201915b5050505050905090565b6000809054906101000a900473ffffffffffffffffffffffffffffffffffffffff1673ffffffffffffffffffffffffffffffffffffffff163373ffffffffffffffffffffffffffffffffffffffff1614151561074d57600080fd5b806002836040518082805190602001908083835b6020831015156107865780518252602082019150602081019050602083039250610761565b6001836020036101000a0380198251168184511680821785525050505050509050019150509081526020016040518091039020819055505050565b6000809054906101000a900473ffffffffffffffffffffffffffffffffffffffff1673ffffffffffffffffffffffffffffffffffffffff163373ffffffffffffffffffffffffffffffffffffffff1614151561081c57600080fd5b806001908051906020019061083292919061127e565b5050565b6000809054906101000a900473ffffffffffffffffffffffffffffffffffffffff1681565b61086361126a565b6003826040518082805190602001908083835b60208310151561089b5780518252602082019150602081019050602083039250610876565b6001836020036101000a03801982511681845116808217855250505050505090500191505090815260200160405180910390206001018054600181600116156101000203166002900480601f0160208091040260200160405190810160405280929190818152602001828054600181600116156101000203166002900480156109655780601f1061093a57610100808354040283529160200191610965565b820191906000526020600020905b81548152906001019060200180831161094857829003601f168201915b50505050509050919050565b60006002826040518082805190602001908083835b6020831015156109ab5780518252602082019150602081019050602083039250610986565b6001836020036101000a0380198251168184511680821785525050505050509050019150509081526020016040518091039020549050919050565b6109ee61126a565b6109f6610d03565b90506060604051908101604052804281526020018381526020013273ffffffffffffffffffffffffffffffffffffffff168152506003826040518082805190602001908083835b602083101515610a625780518252602082019150602081019050602083039250610a3d565b6001836020036101000a0380198251168184511680821785525050505050509050019150509081526020016040518091039020600082015181600001556020820151816001019080519060200190610abb9291906112fe565b5060408201518160020160006101000a81548173ffffffffffffffffffffffffffffffffffffffff021916908373ffffffffffffffffffffffffffffffffffffffff1602179055509050507f325959ebafa537e150cba904b0fe87c4f1f05cc51a0d8057d5c9f16c350251e542826040518083815260200180602001828103825283818151815260200191508051906020019080838360005b83811015610b6f578082015181840152602081019050610b54565b50505050905090810190601f168015610b9c5780820380516001836020036101000a031916815260200191505b50935050505060405180910390a15050565b6000809054906101000a900473ffffffffffffffffffffffffffffffffffffffff1673ffffffffffffffffffffffffffffffffffffffff163373ffffffffffffffffffffffffffffffffffffffff16141515610c0957600080fd5b600073ffffffffffffffffffffffffffffffffffffffff168173ffffffffffffffffffffffffffffffffffffffff1614151515610c4557600080fd5b8073ffffffffffffffffffffffffffffffffffffffff166000809054906101000a900473ffffffffffffffffffffffffffffffffffffffff1673ffffffffffffffffffffffffffffffffffffffff167f8be0079c531659141344cd1fd0a4f28419497f9722a3daafe3b4186f6b6457e060405160405180910390a3806000806101000a81548173ffffffffffffffffffffffffffffffffffffffff021916908373ffffffffffffffffffffffffffffffffffffffff16021790555050565b610d0b61126a565b6000610d1561126a565b6000610d1f61126a565b610d2761126a565b610d656040805190810160405280600b81526020017f626c6f636b6f6666736574000000000000000000000000000000000000000000815250610971565b43039450610d7d600b86610dc590919063ffffffff16565b93503273ffffffffffffffffffffffffffffffffffffffff169250610dac600284610dc590919063ffffffff16565b9150610db8848361108a565b9050809550505050505090565b610dcd61126a565b610dd561126a565b610ddd61137e565b600080600080610deb61137e565b6000610df561137e565b606060405190810160405280603a81526020017f3132333435363738396162636465666768696a6b6d6e6f70717273747576777881526020017f797a41424344454647484a4b4c4d4e505152535455565758595a0000000000008152509850889750603a96506000955060009450600093508a60ff16604051805910610e785750595b9080825280601f01601f19166020018201604052509250600091505b8a60ff168260ff161015610f8e578660ff168c1015610eb257600193505b8660ff168c811515610ec057fe5b0694508660ff168c811515610ed157fe5b049b508785815181101515610ee257fe5b9060200101517f010000000000000000000000000000000000000000000000000000000000000090047f010000000000000000000000000000000000000000000000000000000000000002838360ff16815181101515610f3e57fe5b9060200101907effffffffffffffffffffffffffffffffffffffffffffffffffffffffffffff1916908160001a90535085806001019650508315610f8157610f8e565b8180600101925050610e94565b8560ff16604051805910610f9f5750595b9080825280601f01601f19166020018201604052509050600091505b8560ff168260ff161015611078578260018388030360ff16815181101515610fdf57fe5b9060200101517f010000000000000000000000000000000000000000000000000000000000000090047f010000000000000000000000000000000000000000000000000000000000000002818360ff1681518110151561103b57fe5b9060200101907effffffffffffffffffffffffffffffffffffffffffffffffffffffffffffff1916908160001a9053508180600101925050610fbb565b80995050505050505050505092915050565b61109261126a565b61109a61137e565b6110a261137e565b6110aa61126a565b6110b261137e565b60008088955087945084518651016040518059106110cd5750595b9080825280601f01601f1916602001820160405250935083925060009150600090505b85518110156111a357858181518110151561110757fe5b9060200101517f010000000000000000000000000000000000000000000000000000000000000090047f010000000000000000000000000000000000000000000000000000000000000002838380600101945081518110151561116657fe5b9060200101907effffffffffffffffffffffffffffffffffffffffffffffffffffffffffffff1916908160001a90535080806001019150506110f0565b600090505b845181101561125b5784818151811015156111bf57fe5b9060200101517f010000000000000000000000000000000000000000000000000000000000000090047f010000000000000000000000000000000000000000000000000000000000000002838380600101945081518110151561121e57fe5b9060200101907effffffffffffffffffffffffffffffffffffffffffffffffffffffffffffff1916908160001a90535080806001019150506111a8565b82965050505050505092915050565b602060405190810160405280600081525090565b828054600181600116156101000203166002900490600052602060002090601f016020900481019282601f106112bf57805160ff19168380011785556112ed565b828001600101855582156112ed579182015b828111156112ec5782518255916020019190600101906112d1565b5b5090506112fa9190611392565b5090565b828054600181600116156101000203166002900490600052602060002090601f016020900481019282601f1061133f57805160ff191683800117855561136d565b8280016001018555821561136d579182015b8281111561136c578251825591602001919060010190611351565b5b50905061137a9190611392565b5090565b602060405190810160405280600081525090565b6113b491905b808211156113b0576000816000905550600101611398565b5090565b905600a165627a7a72305820efc40077bd77f791794d375a3563a5a60ea3208d86523d2c47f988f8c2d172850029",
  "source": "pragma solidity '0.4.19';\n\nimport '../node_modules/zeppelin-solidity/contracts/ownership/Ownable.sol';\nimport '../lib/strUtils.sol';\n\ncontract CanTrack is Ownable {\n    \n    using strUtils for *;\n    \n    \n    string URL;\n    \n    mapping(string => uint256) private config;\n\n    struct data {\n        uint256 timestamp; \n        string json; \n        address sender;\n    }\n    \n    mapping (string => data) private cantrack;\n    \n    \n    event ShortLink(uint256 timestamp, string code);\n\n\n    function CanTrack() public {\n        // change the block offset to 1000000 to use contract in testnet\n        setConfig('blockoffset', 1000000);\n        setURL('https://canya-tracker.firebaseapp.com/');\n    }\n    \n    function setURL(string _url) public onlyOwner {\n        URL = _url;\n    }\n\n    function getURL() public view returns (string) {\n        return URL;\n    }\n    \n    function setConfig(string _key, uint256 _value) public onlyOwner {\n        config[_key] = _value;\n    }\n\n    function getConfig(string _key) public view returns (uint256 _value) {\n        return config[_key];\n    }\n\n    // Add record\n    function addData(string json) public {\n        // require(json.isValidJson());\n        \n        string memory code = generateShortLink();\n\n        cantrack[code] = data({\n            timestamp: block.timestamp,\n            json: json,\n            sender: tx.origin\n        });\n\n        ShortLink(block.timestamp, code);\n    }\n\n    // Get record timestamp\n    function getTimestamp(string code) public view returns (uint256) {\n        return cantrack[code].timestamp;\n    }\n\n    // Get record JSON\n    function getData(string code) public view returns (string) {\n        return cantrack[code].json;\n    }\n\n    // Get record sender\n    function getSender(string code) public view returns (address) {\n        return cantrack[code].sender;\n    }\n\n    // Generates a shortlink code for this transaction\n    function generateShortLink() internal view returns (string) {\n        uint value = block.number - getConfig(\"blockoffset\");\n        string memory s1 = value.toBase58(11);\n        \n        uint256 value2 = uint256(tx.origin);\n        string memory s2 = value2.toBase58(2);\n\n        string memory s = strUtils.concat(s1, s2);\n        \n        return s;\n    }\n}",
  "sourcePath": "/Users/GustavoIbarra/Projects/Solidity/cantrack-v1/contracts/CanTrack.sol",
  "compiler": {
    "name": "solc",
    "version": "0.4.19+commit.c4cbbb05.Emscripten.clang"
  },
  "schemaVersion": "2.0.0",
  "updatedAt": "2018-04-02T23:13:42.895Z"
}